{
  "contractName": "OpenAuction",
  "abi": [
    {
      "inputs": [
        {
          "internalType": "uint256",
          "name": "biddingTime",
          "type": "uint256"
        },
        {
          "internalType": "address payable",
          "name": "beneficiaryAddress",
          "type": "address"
        },
        {
          "internalType": "string",
          "name": "titleArg",
          "type": "string"
        },
        {
          "internalType": "string",
          "name": "descriptionArg",
          "type": "string"
        },
        {
          "internalType": "string",
          "name": "urlArg",
          "type": "string"
        }
      ],
      "stateMutability": "nonpayable",
      "type": "constructor"
    },
    {
      "inputs": [],
      "name": "AuctionAlreadyEnded",
      "type": "error"
    },
    {
      "inputs": [],
      "name": "AuctionEndAlreadyCalled",
      "type": "error"
    },
    {
      "inputs": [],
      "name": "AuctionNotYetEnded",
      "type": "error"
    },
    {
      "inputs": [
        {
          "internalType": "uint256",
          "name": "highestBid",
          "type": "uint256"
        }
      ],
      "name": "BidNotHighEnough",
      "type": "error"
    },
    {
      "anonymous": false,
      "inputs": [
        {
          "indexed": false,
          "internalType": "address",
          "name": "winner",
          "type": "address"
        },
        {
          "indexed": false,
          "internalType": "uint256",
          "name": "amount",
          "type": "uint256"
        }
      ],
      "name": "AuctionEnded",
      "type": "event"
    },
    {
      "anonymous": false,
      "inputs": [
        {
          "indexed": false,
          "internalType": "address",
          "name": "bidder",
          "type": "address"
        },
        {
          "indexed": false,
          "internalType": "uint256",
          "name": "amount",
          "type": "uint256"
        }
      ],
      "name": "HighestBidIncreased",
      "type": "event"
    },
    {
      "inputs": [],
      "name": "auctionEndTime",
      "outputs": [
        {
          "internalType": "uint256",
          "name": "",
          "type": "uint256"
        }
      ],
      "stateMutability": "view",
      "type": "function",
      "constant": true
    },
    {
      "inputs": [],
      "name": "beneficiary",
      "outputs": [
        {
          "internalType": "address payable",
          "name": "",
          "type": "address"
        }
      ],
      "stateMutability": "view",
      "type": "function",
      "constant": true
    },
    {
      "inputs": [],
      "name": "blockTimestamp",
      "outputs": [
        {
          "internalType": "uint256",
          "name": "",
          "type": "uint256"
        }
      ],
      "stateMutability": "view",
      "type": "function",
      "constant": true
    },
    {
      "inputs": [],
      "name": "description",
      "outputs": [
        {
          "internalType": "string",
          "name": "",
          "type": "string"
        }
      ],
      "stateMutability": "view",
      "type": "function",
      "constant": true
    },
    {
      "inputs": [],
      "name": "ended",
      "outputs": [
        {
          "internalType": "bool",
          "name": "",
          "type": "bool"
        }
      ],
      "stateMutability": "view",
      "type": "function",
      "constant": true
    },
    {
      "inputs": [],
      "name": "highestBid",
      "outputs": [
        {
          "internalType": "uint256",
          "name": "",
          "type": "uint256"
        }
      ],
      "stateMutability": "view",
      "type": "function",
      "constant": true
    },
    {
      "inputs": [],
      "name": "highestBidder",
      "outputs": [
        {
          "internalType": "address payable",
          "name": "",
          "type": "address"
        }
      ],
      "stateMutability": "view",
      "type": "function",
      "constant": true
    },
    {
      "inputs": [],
      "name": "title",
      "outputs": [
        {
          "internalType": "string",
          "name": "",
          "type": "string"
        }
      ],
      "stateMutability": "view",
      "type": "function",
      "constant": true
    },
    {
      "inputs": [],
      "name": "url",
      "outputs": [
        {
          "internalType": "string",
          "name": "",
          "type": "string"
        }
      ],
      "stateMutability": "view",
      "type": "function",
      "constant": true
    },
    {
      "inputs": [],
      "name": "bid",
      "outputs": [],
      "stateMutability": "payable",
      "type": "function",
      "payable": true
    },
    {
      "inputs": [],
      "name": "auctionEnd",
      "outputs": [],
      "stateMutability": "nonpayable",
      "type": "function"
    }
  ],
  "bytecode": "0x60806040526000600860006101000a81548160ff0219169083151502179055503480156200002c57600080fd5b50604051620011c9380380620011c9833981810160405281019062000052919062000321565b836000806101000a81548173ffffffffffffffffffffffffffffffffffffffff021916908373ffffffffffffffffffffffffffffffffffffffff1602179055508442620000a0919062000435565b600181905550426002819055508260039081620000be9190620006b1565b508160049081620000d09190620006b1565b508060059081620000e29190620006b1565b50505050505062000798565b6000604051905090565b600080fd5b600080fd5b6000819050919050565b620001178162000102565b81146200012357600080fd5b50565b60008151905062000137816200010c565b92915050565b600073ffffffffffffffffffffffffffffffffffffffff82169050919050565b60006200016a826200013d565b9050919050565b6200017c816200015d565b81146200018857600080fd5b50565b6000815190506200019c8162000171565b92915050565b600080fd5b600080fd5b6000601f19601f8301169050919050565b7f4e487b7100000000000000000000000000000000000000000000000000000000600052604160045260246000fd5b620001f782620001ac565b810181811067ffffffffffffffff82111715620002195762000218620001bd565b5b80604052505050565b60006200022e620000ee565b90506200023c8282620001ec565b919050565b600067ffffffffffffffff8211156200025f576200025e620001bd565b5b6200026a82620001ac565b9050602081019050919050565b60005b83811015620002975780820151818401526020810190506200027a565b60008484015250505050565b6000620002ba620002b48462000241565b62000222565b905082815260208101848484011115620002d957620002d8620001a7565b5b620002e684828562000277565b509392505050565b600082601f830112620003065762000305620001a2565b5b815162000318848260208601620002a3565b91505092915050565b600080600080600060a0868803121562000340576200033f620000f8565b5b6000620003508882890162000126565b955050602062000363888289016200018b565b945050604086015167ffffffffffffffff811115620003875762000386620000fd565b5b6200039588828901620002ee565b935050606086015167ffffffffffffffff811115620003b957620003b8620000fd565b5b620003c788828901620002ee565b925050608086015167ffffffffffffffff811115620003eb57620003ea620000fd565b5b620003f988828901620002ee565b9150509295509295909350565b7f4e487b7100000000000000000000000000000000000000000000000000000000600052601160045260246000fd5b6000620004428262000102565b91506200044f8362000102565b92508282019050808211156200046a576200046962000406565b5b92915050565b600081519050919050565b7f4e487b7100000000000000000000000000000000000000000000000000000000600052602260045260246000fd5b60006002820490506001821680620004c357607f821691505b602082108103620004d957620004d86200047b565b5b50919050565b60008190508160005260206000209050919050565b60006020601f8301049050919050565b600082821b905092915050565b600060088302620005437fffffffffffffffffffffffffffffffffffffffffffffffffffffffffffffffff8262000504565b6200054f868362000504565b95508019841693508086168417925050509392505050565b6000819050919050565b6000620005926200058c620005868462000102565b62000567565b62000102565b9050919050565b6000819050919050565b620005ae8362000571565b620005c6620005bd8262000599565b84845462000511565b825550505050565b600090565b620005dd620005ce565b620005ea818484620005a3565b505050565b5b81811015620006125762000606600082620005d3565b600181019050620005f0565b5050565b601f82111562000661576200062b81620004df565b6200063684620004f4565b8101602085101562000646578190505b6200065e6200065585620004f4565b830182620005ef565b50505b505050565b600082821c905092915050565b6000620006866000198460080262000666565b1980831691505092915050565b6000620006a1838362000673565b9150826002028217905092915050565b620006bc8262000470565b67ffffffffffffffff811115620006d857620006d7620001bd565b5b620006e48254620004aa565b620006f182828562000616565b600060209050601f83116001811462000729576000841562000714578287015190505b62000720858262000693565b86555062000790565b601f1984166200073986620004df565b60005b8281101562000763578489015182556001820191506020850194506020810190506200073c565b868310156200078357848901516200077f601f89168262000673565b8355505b6001600288020188555050505b505050505050565b610a2180620007a86000396000f3fe60806040526004361061009c5760003560e01c80634b449cba116100645780634b449cba146101435780635600f04f1461016e5780637284e4161461019957806391f90157146101c4578063adb61832146101ef578063d57bde791461021a5761009c565b806312fa6feb146100a15780631998aeef146100cc5780632a24f46c146100d657806338af3eed146100ed5780634a79d50c14610118575b600080fd5b3480156100ad57600080fd5b506100b6610245565b6040516100c3919061075c565b60405180910390f35b6100d4610258565b005b3480156100e257600080fd5b506100eb6103d5565b005b3480156100f957600080fd5b5061010261053b565b60405161010f91906107b8565b60405180910390f35b34801561012457600080fd5b5061012d61055f565b60405161013a9190610863565b60405180910390f35b34801561014f57600080fd5b506101586105ed565b604051610165919061089e565b60405180910390f35b34801561017a57600080fd5b506101836105f3565b6040516101909190610863565b60405180910390f35b3480156101a557600080fd5b506101ae610681565b6040516101bb9190610863565b60405180910390f35b3480156101d057600080fd5b506101d961070f565b6040516101e691906107b8565b60405180910390f35b3480156101fb57600080fd5b50610204610735565b604051610211919061089e565b60405180910390f35b34801561022657600080fd5b5061022f61073b565b60405161023c919061089e565b60405180910390f35b600860009054906101000a900460ff1681565b600154421115610294576040517fd02e774d00000000000000000000000000000000000000000000000000000000815260040160405180910390fd5b60075434116102dc576007546040517f4e12c1bb0000000000000000000000000000000000000000000000000000000081526004016102d3919061089e565b60405180910390fd5b60006007541461035257600660009054906101000a900473ffffffffffffffffffffffffffffffffffffffff1673ffffffffffffffffffffffffffffffffffffffff166108fc6007549081150290604051600060405180830381858888f19350505050158015610350573d6000803e3d6000fd5b505b33600660006101000a81548173ffffffffffffffffffffffffffffffffffffffff021916908373ffffffffffffffffffffffffffffffffffffffff160217905550346007819055507ff4757a49b326036464bec6fe419a4ae38c8a02ce3e68bf0809674f6aab8ad30033346040516103cb9291906108da565b60405180910390a1565b600154421015610411576040517f44cee29000000000000000000000000000000000000000000000000000000000815260040160405180910390fd5b600860009054906101000a900460ff1615610458576040517f61cfdcf800000000000000000000000000000000000000000000000000000000815260040160405180910390fd5b6001600860006101000a81548160ff0219169083151502179055507fdaec4582d5d9595688c8c98545fdd1c696d41c6aeaeb636737e84ed2f5c00eda600660009054906101000a900473ffffffffffffffffffffffffffffffffffffffff166007546040516104c8929190610962565b60405180910390a160008054906101000a900473ffffffffffffffffffffffffffffffffffffffff1673ffffffffffffffffffffffffffffffffffffffff166108fc6007549081150290604051600060405180830381858888f19350505050158015610538573d6000803e3d6000fd5b50565b60008054906101000a900473ffffffffffffffffffffffffffffffffffffffff1681565b6003805461056c906109ba565b80601f0160208091040260200160405190810160405280929190818152602001828054610598906109ba565b80156105e55780601f106105ba576101008083540402835291602001916105e5565b820191906000526020600020905b8154815290600101906020018083116105c857829003601f168201915b505050505081565b60015481565b60058054610600906109ba565b80601f016020809104026020016040519081016040528092919081815260200182805461062c906109ba565b80156106795780601f1061064e57610100808354040283529160200191610679565b820191906000526020600020905b81548152906001019060200180831161065c57829003601f168201915b505050505081565b6004805461068e906109ba565b80601f01602080910402602001604051908101604052809291908181526020018280546106ba906109ba565b80156107075780601f106106dc57610100808354040283529160200191610707565b820191906000526020600020905b8154815290600101906020018083116106ea57829003601f168201915b505050505081565b600660009054906101000a900473ffffffffffffffffffffffffffffffffffffffff1681565b60025481565b60075481565b60008115159050919050565b61075681610741565b82525050565b6000602082019050610771600083018461074d565b92915050565b600073ffffffffffffffffffffffffffffffffffffffff82169050919050565b60006107a282610777565b9050919050565b6107b281610797565b82525050565b60006020820190506107cd60008301846107a9565b92915050565b600081519050919050565b600082825260208201905092915050565b60005b8381101561080d5780820151818401526020810190506107f2565b60008484015250505050565b6000601f19601f8301169050919050565b6000610835826107d3565b61083f81856107de565b935061084f8185602086016107ef565b61085881610819565b840191505092915050565b6000602082019050818103600083015261087d818461082a565b905092915050565b6000819050919050565b61089881610885565b82525050565b60006020820190506108b3600083018461088f565b92915050565b60006108c482610777565b9050919050565b6108d4816108b9565b82525050565b60006040820190506108ef60008301856108cb565b6108fc602083018461088f565b9392505050565b6000819050919050565b600061092861092361091e84610777565b610903565b610777565b9050919050565b600061093a8261090d565b9050919050565b600061094c8261092f565b9050919050565b61095c81610941565b82525050565b60006040820190506109776000830185610953565b610984602083018461088f565b9392505050565b7f4e487b7100000000000000000000000000000000000000000000000000000000600052602260045260246000fd5b600060028204905060018216806109d257607f821691505b6020821081036109e5576109e461098b565b5b5091905056fea2646970667358221220e43345aade7490a55fb8f3514936022dc4630dcd877859dfb00779b631d7c53664736f6c63430008110033",
  "immutableReferences": {},
  "source": "// SPDX-License-Identifier: AGPL-3.0-or-later\npragma solidity >=0.8.0;\n\ncontract OpenAuction {\n    // parameters (time in unix epoch seconds)\n    address payable public beneficiary;\n    uint public auctionEndTime;\n    uint public blockTimestamp;\n    string public title;\n    string public description;\n    string public url;\n\n    // current state of auction\n    address payable public highestBidder;\n    uint public highestBid;\n    bool public ended = false;\n\n    // events that will be emitted on changes.\n    event HighestBidIncreased(address bidder, uint amount);\n    event AuctionEnded(address winner, uint amount);\n\n    // errors that describe failures\n    // comments with 3 slashes are special dont change them\n    /// The auction has already ended.\n    error AuctionAlreadyEnded();\n    /// There is already a higher or equal bid.\n    error BidNotHighEnough(uint highestBid);\n    /// The auction has not ended yet.\n    error AuctionNotYetEnded();\n    /// The function auctionEnd has already been called.\n    error AuctionEndAlreadyCalled();\n\n    /// Create a simple auction with `biddingTime`\n    /// seconds bidding time on behalf of the\n    /// beneficiary address `beneficiaryAddress`.\n    constructor(\n        uint biddingTime,\n        address payable beneficiaryAddress,\n        string memory titleArg,\n        string memory descriptionArg,\n        string memory urlArg\n    ) {\n        beneficiary = beneficiaryAddress;\n        auctionEndTime = block.timestamp + biddingTime;\n        blockTimestamp = block.timestamp;\n        title = titleArg;\n        description = descriptionArg;\n        url = urlArg;\n    }\n\n    /// Bid on the auction with the value sent\n    /// together with this transaction.\n    /// The value will only be refunded if the\n    /// auction is not won.\n    function bid() external payable {\n        // revert will revert all changes and send the money back\n        if (block.timestamp > auctionEndTime)\n            revert AuctionAlreadyEnded();\n        if (msg.value <= highestBid)\n            revert BidNotHighEnough(highestBid);\n\n        // if the new bid is larger send previous highest bidder's money back\n        if (highestBid != 0)\n            highestBidder.transfer(highestBid);\n\n        highestBidder = payable(msg.sender);\n        highestBid = msg.value;\n        emit HighestBidIncreased(msg.sender, msg.value);\n    }\n\n    /// End the auction and send the highest bid\n    /// to the beneficiary.\n    function auctionEnd() external {\n        if (block.timestamp < auctionEndTime)\n            revert AuctionNotYetEnded();\n        if (ended)\n            revert AuctionEndAlreadyCalled();\n\n        ended = true;\n        emit AuctionEnded(highestBidder, highestBid);\n\n        // transfer the bid to beneficiary\n        beneficiary.transfer(highestBid);\n    }\n}\n",
  "sourcePath": "/home/richard/git/uni/bgt/smartcontracts/contracts/Auction.sol",
  "compiler": {
    "name": "solc",
    "version": "0.8.17+commit.8df45f5f.Emscripten.clang"
  },
  "schemaVersion": "3.4.11",
  "updatedAt": "2022-12-15T10:33:38.436Z",
  "networkType": "ethereum",
  "devdoc": {
    "kind": "dev",
    "methods": {},
    "version": 1
  },
  "userdoc": {
    "errors": {
      "AuctionAlreadyEnded()": [
        {
          "notice": "The auction has already ended."
        }
      ],
      "AuctionEndAlreadyCalled()": [
        {
          "notice": "The function auctionEnd has already been called."
        }
      ],
      "AuctionNotYetEnded()": [
        {
          "notice": "The auction has not ended yet."
        }
      ],
      "BidNotHighEnough(uint256)": [
        {
          "notice": "There is already a higher or equal bid."
        }
      ]
    },
    "kind": "user",
    "methods": {
      "auctionEnd()": {
        "notice": "End the auction and send the highest bid to the beneficiary."
      },
      "bid()": {
        "notice": "Bid on the auction with the value sent together with this transaction. The value will only be refunded if the auction is not won."
      },
      "constructor": {
        "notice": "Create a simple auction with `biddingTime` seconds bidding time on behalf of the beneficiary address `beneficiaryAddress`."
      }
    },
    "version": 1
  }
}